{
  "_format": "hh-sol-artifact-1",
  "contractName": "JokesterPool",
  "sourceName": "contracts/JokesterPool.sol",
  "abi": [
    {
      "inputs": [],
      "stateMutability": "payable",
      "type": "constructor"
    },
    {
      "anonymous": false,
      "inputs": [
        {
          "indexed": true,
          "internalType": "address",
          "name": "from",
          "type": "address"
        },
        {
          "indexed": false,
          "internalType": "uint256",
          "name": "timestamp",
          "type": "uint256"
        },
        {
          "indexed": false,
          "internalType": "bytes32",
          "name": "joke_id",
          "type": "bytes32"
        }
      ],
      "name": "NewJoke",
      "type": "event"
    },
    {
      "inputs": [
        {
          "internalType": "string",
          "name": "jokestring",
          "type": "string"
        }
      ],
      "name": "addJoke",
      "outputs": [],
      "stateMutability": "nonpayable",
      "type": "function"
    },
    {
      "inputs": [
        {
          "internalType": "bytes32",
          "name": "joke_id",
          "type": "bytes32"
        }
      ],
      "name": "getJoke",
      "outputs": [
        {
          "internalType": "bytes32",
          "name": "jokeid",
          "type": "bytes32"
        },
        {
          "internalType": "address",
          "name": "author",
          "type": "address"
        },
        {
          "internalType": "string",
          "name": "joke",
          "type": "string"
        },
        {
          "internalType": "uint256[]",
          "name": "ratings",
          "type": "uint256[]"
        },
        {
          "internalType": "uint256",
          "name": "timestamp",
          "type": "uint256"
        }
      ],
      "stateMutability": "view",
      "type": "function"
    },
    {
      "inputs": [],
      "name": "getJokeIDs",
      "outputs": [
        {
          "internalType": "bytes32[]",
          "name": "",
          "type": "bytes32[]"
        }
      ],
      "stateMutability": "view",
      "type": "function"
    },
    {
      "inputs": [
        {
          "internalType": "bytes32",
          "name": "",
          "type": "bytes32"
        }
      ],
      "name": "jokeStructs",
      "outputs": [
        {
          "internalType": "address",
          "name": "author",
          "type": "address"
        },
        {
          "internalType": "string",
          "name": "joke",
          "type": "string"
        },
        {
          "internalType": "uint256",
          "name": "timestamp",
          "type": "uint256"
        }
      ],
      "stateMutability": "view",
      "type": "function"
    },
    {
      "inputs": [
        {
          "internalType": "uint256",
          "name": "",
          "type": "uint256"
        }
      ],
      "name": "jokes",
      "outputs": [
        {
          "internalType": "bytes32",
          "name": "",
          "type": "bytes32"
        }
      ],
      "stateMutability": "view",
      "type": "function"
    },
    {
      "inputs": [
        {
          "internalType": "address",
          "name": "",
          "type": "address"
        }
      ],
      "name": "lastAddedJoke",
      "outputs": [
        {
          "internalType": "uint256",
          "name": "",
          "type": "uint256"
        }
      ],
      "stateMutability": "view",
      "type": "function"
    },
    {
      "inputs": [
        {
          "internalType": "bytes32",
          "name": "joke_id",
          "type": "bytes32"
        },
        {
          "internalType": "uint256",
          "name": "rating",
          "type": "uint256"
        }
      ],
      "name": "rateJoke",
      "outputs": [],
      "stateMutability": "nonpayable",
      "type": "function"
    }
  ],
  "bytecode": "0x60806040526200004f6040518060400160405280601981526020017f57652068617665206265656e20636f6e737472756374656421000000000000008152506200007760201b620006181760201c565b606444426200005f9190620001c4565b6200006b919062000261565b60008190555062000308565b62000117816040516024016200008e919062000184565b6040516020818303038152906040527f41304fac000000000000000000000000000000000000000000000000000000007bffffffffffffffffffffffffffffffffffffffffffffffffffffffff19166020820180517bffffffffffffffffffffffffffffffffffffffffffffffffffffffff83818316178352505050506200011a60201b60201c565b50565b60008151905060006a636f6e736f6c652e6c6f679050602083016000808483855afa5050505050565b60006200015082620001a8565b6200015c8185620001b3565b93506200016e8185602086016200022b565b6200017981620002f7565b840191505092915050565b60006020820190508181036000830152620001a0818462000143565b905092915050565b600081519050919050565b600082825260208201905092915050565b6000620001d18262000221565b9150620001de8362000221565b9250827fffffffffffffffffffffffffffffffffffffffffffffffffffffffffffffffff0382111562000216576200021562000299565b5b828201905092915050565b6000819050919050565b60005b838110156200024b5780820151818401526020810190506200022e565b838111156200025b576000848401525b50505050565b60006200026e8262000221565b91506200027b8362000221565b9250826200028e576200028d620002c8565b5b828206905092915050565b7f4e487b7100000000000000000000000000000000000000000000000000000000600052601160045260246000fd5b7f4e487b7100000000000000000000000000000000000000000000000000000000600052601260045260246000fd5b6000601f19601f8301169050919050565b610f8680620003186000396000f3fe608060405234801561001057600080fd5b506004361061007d5760003560e01c8063a64d49981161005b578063a64d499814610118578063c9e53d0414610148578063d8f7c73614610166578063dc72fe8c146101825761007d565b8063779ba33d146100825780637af94c9e146100b6578063a47082c4146100e8575b600080fd5b61009c6004803603810190610097919061091c565b61019e565b6040516100ad959493929190610bd6565b60405180910390f35b6100d060048036038101906100cb919061091c565b61030c565b6040516100df93929190610b5b565b60405180910390f35b61010260048036038101906100fd91906108f3565b6103de565b60405161010f9190610c89565b60405180910390f35b610132600480360381019061012d91906109c2565b6103f6565b60405161013f9190610bbb565b60405180910390f35b61015061041a565b60405161015d9190610b99565b60405180910390f35b610180600480360381019061017b9190610981565b610472565b005b61019c60048036038101906101979190610945565b6105d7565b005b60008060608060006002600087815260200190815260200160002060000160009054906101000a900473ffffffffffffffffffffffffffffffffffffffff16935060026000878152602001908152602001600020600101805461020090610e39565b80601f016020809104026020016040519081016040528092919081815260200182805461022c90610e39565b80156102795780601f1061024e57610100808354040283529160200191610279565b820191906000526020600020905b81548152906001019060200180831161025c57829003601f168201915b50505050509250600260008781526020019081526020016000206002018054806020026020016040519081016040528092919081815260200182805480156102e057602002820191906000526020600020905b8154815260200190600101908083116102cc575b505050505091506002600087815260200190815260200160002060030154905085945091939590929450565b60026020528060005260406000206000915090508060000160009054906101000a900473ffffffffffffffffffffffffffffffffffffffff169080600101805461035590610e39565b80601f016020809104026020016040519081016040528092919081815260200182805461038190610e39565b80156103ce5780601f106103a3576101008083540402835291602001916103ce565b820191906000526020600020905b8154815290600101906020018083116103b157829003601f168201915b5050505050908060030154905083565b60016020528060005260406000206000915090505481565b6003818154811061040657600080fd5b906000526020600020016000915090505481565b6060600380548060200260200160405190810160405280929190818152602001828054801561046857602002820191906000526020600020905b815481526020019060010190808311610454575b5050505050905090565b600061047e82336106b1565b9050336002600083815260200190815260200160002060000160006101000a81548173ffffffffffffffffffffffffffffffffffffffff021916908373ffffffffffffffffffffffffffffffffffffffff160217905550816002600083815260200190815260200160002060010190805190602001906104ff9291906107a9565b5042600260008381526020019081526020016000206003018190555060038190806001815401808255809150506001900390600052602060002001600090919091909150556105836040518060400160405280601181526020017f257320686173206164646564206a6f6b65000000000000000000000000000000815250336106e4565b3373ffffffffffffffffffffffffffffffffffffffff167f5876e8e102d0c5df824bc23981ea9cb75bdb5516398a01f15a3143d6a3a2685b42836040516105cb929190610ca4565b60405180910390a25050565b600260008381526020019081526020016000206002018190806001815401808255809150506001900390600052602060002001600090919091909150555050565b6106ae8160405160240161062c9190610c37565b6040516020818303038152906040527f41304fac000000000000000000000000000000000000000000000000000000007bffffffffffffffffffffffffffffffffffffffffffffffffffffffff19166020820180517bffffffffffffffffffffffffffffffffffffffffffffffffffffffff8381831617835250505050610780565b50565b600082826040516020016106c6929190610c59565b60405160208183030381529060405280519060200120905092915050565b61077c82826040516024016106fa929190610c59565b6040516020818303038152906040527f319af333000000000000000000000000000000000000000000000000000000007bffffffffffffffffffffffffffffffffffffffffffffffffffffffff19166020820180517bffffffffffffffffffffffffffffffffffffffffffffffffffffffff8381831617835250505050610780565b5050565b60008151905060006a636f6e736f6c652e6c6f679050602083016000808483855afa5050505050565b8280546107b590610e39565b90600052602060002090601f0160209004810192826107d7576000855561081e565b82601f106107f057805160ff191683800117855561081e565b8280016001018555821561081e579182015b8281111561081d578251825591602001919060010190610802565b5b50905061082b919061082f565b5090565b5b80821115610848576000816000905550600101610830565b5090565b600061085f61085a84610cf2565b610ccd565b90508281526020810184848401111561087757600080fd5b610882848285610df7565b509392505050565b60008135905061089981610f0b565b92915050565b6000813590506108ae81610f22565b92915050565b600082601f8301126108c557600080fd5b81356108d584826020860161084c565b91505092915050565b6000813590506108ed81610f39565b92915050565b60006020828403121561090557600080fd5b60006109138482850161088a565b91505092915050565b60006020828403121561092e57600080fd5b600061093c8482850161089f565b91505092915050565b6000806040838503121561095857600080fd5b60006109668582860161089f565b9250506020610977858286016108de565b9150509250929050565b60006020828403121561099357600080fd5b600082013567ffffffffffffffff8111156109ad57600080fd5b6109b9848285016108b4565b91505092915050565b6000602082840312156109d457600080fd5b60006109e2848285016108de565b91505092915050565b60006109f78383610ae6565b60208301905092915050565b6000610a0f8383610b3d565b60208301905092915050565b610a2481610db1565b82525050565b6000610a3582610d43565b610a3f8185610d7e565b9350610a4a83610d23565b8060005b83811015610a7b578151610a6288826109eb565b9750610a6d83610d64565b925050600181019050610a4e565b5085935050505092915050565b6000610a9382610d4e565b610a9d8185610d8f565b9350610aa883610d33565b8060005b83811015610ad9578151610ac08882610a03565b9750610acb83610d71565b925050600181019050610aac565b5085935050505092915050565b610aef81610dc3565b82525050565b610afe81610dc3565b82525050565b6000610b0f82610d59565b610b198185610da0565b9350610b29818560208601610e06565b610b3281610efa565b840191505092915050565b610b4681610ded565b82525050565b610b5581610ded565b82525050565b6000606082019050610b706000830186610a1b565b8181036020830152610b828185610b04565b9050610b916040830184610b4c565b949350505050565b60006020820190508181036000830152610bb38184610a2a565b905092915050565b6000602082019050610bd06000830184610af5565b92915050565b600060a082019050610beb6000830188610af5565b610bf86020830187610a1b565b8181036040830152610c0a8186610b04565b90508181036060830152610c1e8185610a88565b9050610c2d6080830184610b4c565b9695505050505050565b60006020820190508181036000830152610c518184610b04565b905092915050565b60006040820190508181036000830152610c738185610b04565b9050610c826020830184610a1b565b9392505050565b6000602082019050610c9e6000830184610b4c565b92915050565b6000604082019050610cb96000830185610b4c565b610cc66020830184610af5565b9392505050565b6000610cd7610ce8565b9050610ce38282610e6b565b919050565b6000604051905090565b600067ffffffffffffffff821115610d0d57610d0c610ecb565b5b610d1682610efa565b9050602081019050919050565b6000819050602082019050919050565b6000819050602082019050919050565b600081519050919050565b600081519050919050565b600081519050919050565b6000602082019050919050565b6000602082019050919050565b600082825260208201905092915050565b600082825260208201905092915050565b600082825260208201905092915050565b6000610dbc82610dcd565b9050919050565b6000819050919050565b600073ffffffffffffffffffffffffffffffffffffffff82169050919050565b6000819050919050565b82818337600083830152505050565b60005b83811015610e24578082015181840152602081019050610e09565b83811115610e33576000848401525b50505050565b60006002820490506001821680610e5157607f821691505b60208210811415610e6557610e64610e9c565b5b50919050565b610e7482610efa565b810181811067ffffffffffffffff82111715610e9357610e92610ecb565b5b80604052505050565b7f4e487b7100000000000000000000000000000000000000000000000000000000600052602260045260246000fd5b7f4e487b7100000000000000000000000000000000000000000000000000000000600052604160045260246000fd5b6000601f19601f8301169050919050565b610f1481610db1565b8114610f1f57600080fd5b50565b610f2b81610dc3565b8114610f3657600080fd5b50565b610f4281610ded565b8114610f4d57600080fd5b5056fea264697066735822122047c2ba5d5c9dd1e3b33934835290b8c9e4dcf9b51e06c4791d2e8057923bb6b264736f6c63430008040033",
  "linkReferences": {},
  "deployedLinkReferences": {}
}